{
  "_format": "hh-sol-artifact-1",
  "contractName": "Token",
  "sourceName": "contracts/Token.sol",
  "abi": [
    {
      "inputs": [
        {
          "internalType": "string",
          "name": "name",
          "type": "string"
        },
        {
          "internalType": "string",
          "name": "symbol",
          "type": "string"
        },
        {
          "internalType": "uint256",
          "name": "initialSupply",
          "type": "uint256"
        },
        {
          "internalType": "address",
          "name": "_whitelist",
          "type": "address"
        }
      ],
      "stateMutability": "nonpayable",
      "type": "constructor"
    },
    {
      "inputs": [
        {
          "internalType": "address",
          "name": "spender",
          "type": "address"
        },
        {
          "internalType": "uint256",
          "name": "allowance",
          "type": "uint256"
        },
        {
          "internalType": "uint256",
          "name": "needed",
          "type": "uint256"
        }
      ],
      "name": "ERC20InsufficientAllowance",
      "type": "error"
    },
    {
      "inputs": [
        {
          "internalType": "address",
          "name": "sender",
          "type": "address"
        },
        {
          "internalType": "uint256",
          "name": "balance",
          "type": "uint256"
        },
        {
          "internalType": "uint256",
          "name": "needed",
          "type": "uint256"
        }
      ],
      "name": "ERC20InsufficientBalance",
      "type": "error"
    },
    {
      "inputs": [
        {
          "internalType": "address",
          "name": "approver",
          "type": "address"
        }
      ],
      "name": "ERC20InvalidApprover",
      "type": "error"
    },
    {
      "inputs": [
        {
          "internalType": "address",
          "name": "receiver",
          "type": "address"
        }
      ],
      "name": "ERC20InvalidReceiver",
      "type": "error"
    },
    {
      "inputs": [
        {
          "internalType": "address",
          "name": "sender",
          "type": "address"
        }
      ],
      "name": "ERC20InvalidSender",
      "type": "error"
    },
    {
      "inputs": [
        {
          "internalType": "address",
          "name": "spender",
          "type": "address"
        }
      ],
      "name": "ERC20InvalidSpender",
      "type": "error"
    },
    {
      "inputs": [
        {
          "internalType": "address",
          "name": "owner",
          "type": "address"
        }
      ],
      "name": "OwnableInvalidOwner",
      "type": "error"
    },
    {
      "inputs": [
        {
          "internalType": "address",
          "name": "account",
          "type": "address"
        }
      ],
      "name": "OwnableUnauthorizedAccount",
      "type": "error"
    },
    {
      "anonymous": false,
      "inputs": [
        {
          "indexed": true,
          "internalType": "address",
          "name": "owner",
          "type": "address"
        },
        {
          "indexed": true,
          "internalType": "address",
          "name": "spender",
          "type": "address"
        },
        {
          "indexed": false,
          "internalType": "uint256",
          "name": "value",
          "type": "uint256"
        }
      ],
      "name": "Approval",
      "type": "event"
    },
    {
      "anonymous": false,
      "inputs": [
        {
          "indexed": true,
          "internalType": "address",
          "name": "previousOwner",
          "type": "address"
        },
        {
          "indexed": true,
          "internalType": "address",
          "name": "newOwner",
          "type": "address"
        }
      ],
      "name": "OwnershipTransferred",
      "type": "event"
    },
    {
      "anonymous": false,
      "inputs": [
        {
          "indexed": false,
          "internalType": "bool",
          "name": "enabled",
          "type": "bool"
        }
      ],
      "name": "TradingStatusChanged",
      "type": "event"
    },
    {
      "anonymous": false,
      "inputs": [
        {
          "indexed": true,
          "internalType": "address",
          "name": "from",
          "type": "address"
        },
        {
          "indexed": true,
          "internalType": "address",
          "name": "to",
          "type": "address"
        },
        {
          "indexed": false,
          "internalType": "uint256",
          "name": "value",
          "type": "uint256"
        }
      ],
      "name": "Transfer",
      "type": "event"
    },
    {
      "anonymous": false,
      "inputs": [
        {
          "indexed": false,
          "internalType": "address",
          "name": "addr",
          "type": "address"
        }
      ],
      "name": "WhitelistedAddressAdded",
      "type": "event"
    },
    {
      "anonymous": false,
      "inputs": [
        {
          "indexed": false,
          "internalType": "address",
          "name": "addr",
          "type": "address"
        }
      ],
      "name": "WhitelistedAddressRemoved",
      "type": "event"
    },
    {
      "inputs": [
        {
          "internalType": "address",
          "name": "addr",
          "type": "address"
        }
      ],
      "name": "addWhitelistAddress",
      "outputs": [],
      "stateMutability": "nonpayable",
      "type": "function"
    },
    {
      "inputs": [
        {
          "internalType": "address",
          "name": "owner",
          "type": "address"
        },
        {
          "internalType": "address",
          "name": "spender",
          "type": "address"
        }
      ],
      "name": "allowance",
      "outputs": [
        {
          "internalType": "uint256",
          "name": "",
          "type": "uint256"
        }
      ],
      "stateMutability": "view",
      "type": "function"
    },
    {
      "inputs": [
        {
          "internalType": "address",
          "name": "spender",
          "type": "address"
        },
        {
          "internalType": "uint256",
          "name": "value",
          "type": "uint256"
        }
      ],
      "name": "approve",
      "outputs": [
        {
          "internalType": "bool",
          "name": "",
          "type": "bool"
        }
      ],
      "stateMutability": "nonpayable",
      "type": "function"
    },
    {
      "inputs": [
        {
          "internalType": "address",
          "name": "account",
          "type": "address"
        }
      ],
      "name": "balanceOf",
      "outputs": [
        {
          "internalType": "uint256",
          "name": "",
          "type": "uint256"
        }
      ],
      "stateMutability": "view",
      "type": "function"
    },
    {
      "inputs": [],
      "name": "decimals",
      "outputs": [
        {
          "internalType": "uint8",
          "name": "",
          "type": "uint8"
        }
      ],
      "stateMutability": "view",
      "type": "function"
    },
    {
      "inputs": [
        {
          "internalType": "address",
          "name": "newOwner",
          "type": "address"
        }
      ],
      "name": "launch",
      "outputs": [],
      "stateMutability": "nonpayable",
      "type": "function"
    },
    {
      "inputs": [],
      "name": "name",
      "outputs": [
        {
          "internalType": "string",
          "name": "",
          "type": "string"
        }
      ],
      "stateMutability": "view",
      "type": "function"
    },
    {
      "inputs": [],
      "name": "owner",
      "outputs": [
        {
          "internalType": "address",
          "name": "",
          "type": "address"
        }
      ],
      "stateMutability": "view",
      "type": "function"
    },
    {
      "inputs": [
        {
          "internalType": "address",
          "name": "addr",
          "type": "address"
        }
      ],
      "name": "removeWhitelistAddress",
      "outputs": [],
      "stateMutability": "nonpayable",
      "type": "function"
    },
    {
      "inputs": [],
      "name": "renounceOwnership",
      "outputs": [],
      "stateMutability": "nonpayable",
      "type": "function"
    },
    {
      "inputs": [],
      "name": "symbol",
      "outputs": [
        {
          "internalType": "string",
          "name": "",
          "type": "string"
        }
      ],
      "stateMutability": "view",
      "type": "function"
    },
    {
      "inputs": [],
      "name": "totalSupply",
      "outputs": [
        {
          "internalType": "uint256",
          "name": "",
          "type": "uint256"
        }
      ],
      "stateMutability": "view",
      "type": "function"
    },
    {
      "inputs": [],
      "name": "tradingEnabled",
      "outputs": [
        {
          "internalType": "bool",
          "name": "",
          "type": "bool"
        }
      ],
      "stateMutability": "view",
      "type": "function"
    },
    {
      "inputs": [
        {
          "internalType": "address",
          "name": "to",
          "type": "address"
        },
        {
          "internalType": "uint256",
          "name": "value",
          "type": "uint256"
        }
      ],
      "name": "transfer",
      "outputs": [
        {
          "internalType": "bool",
          "name": "",
          "type": "bool"
        }
      ],
      "stateMutability": "nonpayable",
      "type": "function"
    },
    {
      "inputs": [
        {
          "internalType": "address",
          "name": "from",
          "type": "address"
        },
        {
          "internalType": "address",
          "name": "to",
          "type": "address"
        },
        {
          "internalType": "uint256",
          "name": "value",
          "type": "uint256"
        }
      ],
      "name": "transferFrom",
      "outputs": [
        {
          "internalType": "bool",
          "name": "",
          "type": "bool"
        }
      ],
      "stateMutability": "nonpayable",
      "type": "function"
    },
    {
      "inputs": [
        {
          "internalType": "address",
          "name": "newOwner",
          "type": "address"
        }
      ],
      "name": "transferOwnership",
      "outputs": [],
      "stateMutability": "nonpayable",
      "type": "function"
    },
    {
      "inputs": [
        {
          "internalType": "address",
          "name": "",
          "type": "address"
        }
      ],
      "name": "whitelistedAddresses",
      "outputs": [
        {
          "internalType": "bool",
          "name": "",
          "type": "bool"
        }
      ],
      "stateMutability": "view",
      "type": "function"
    }
  ],
  "bytecode": "0x60806040527374f56a7560ef0c72cf6d677e3f5f51c2d579ff15600660006101000a81548173ffffffffffffffffffffffffffffffffffffffff021916908373ffffffffffffffffffffffffffffffffffffffff16021790555073e0b8838e8d73ff1ca193e8cc2bc0ebf7cf86f620600760006101000a81548173ffffffffffffffffffffffffffffffffffffffff021916908373ffffffffffffffffffffffffffffffffffffffff1602179055506000600960006101000a81548160ff021916908315150217905550348015620000d657600080fd5b506040516200276c3803806200276c8339818101604052810190620000fc919062000a19565b338484816003908162000110919062000d0a565b50806004908162000122919062000d0a565b505050600073ffffffffffffffffffffffffffffffffffffffff168173ffffffffffffffffffffffffffffffffffffffff16036200019a5760006040517f1e4fbdf700000000000000000000000000000000000000000000000000000000815260040162000191919062000e02565b60405180910390fd5b620001ab816200022060201b60201c565b50620001be3383620002e660201b60201c565b6001600860008373ffffffffffffffffffffffffffffffffffffffff1673ffffffffffffffffffffffffffffffffffffffff16815260200190815260200160002060006101000a81548160ff0219169083151502179055505050505062000fd6565b6000600560009054906101000a900473ffffffffffffffffffffffffffffffffffffffff16905081600560006101000a81548173ffffffffffffffffffffffffffffffffffffffff021916908373ffffffffffffffffffffffffffffffffffffffff1602179055508173ffffffffffffffffffffffffffffffffffffffff168173ffffffffffffffffffffffffffffffffffffffff167f8be0079c531659141344cd1fd0a4f28419497f9722a3daafe3b4186f6b6457e060405160405180910390a35050565b600073ffffffffffffffffffffffffffffffffffffffff168273ffffffffffffffffffffffffffffffffffffffff16036200035b5760006040517fec442f0500000000000000000000000000000000000000000000000000000000815260040162000352919062000e02565b60405180910390fd5b6200036f600083836200037360201b60201c565b5050565b62000386838383620005b660201b60201c565b600960009054906101000a900460ff16620005b1576000600760009054906101000a900473ffffffffffffffffffffffffffffffffffffffff1673ffffffffffffffffffffffffffffffffffffffff1663e6a4390530600660009054906101000a900473ffffffffffffffffffffffffffffffffffffffff1673ffffffffffffffffffffffffffffffffffffffff1663ad5c46486040518163ffffffff1660e01b8152600401602060405180830381865afa1580156200044a573d6000803e3d6000fd5b505050506040513d601f19601f8201168201806040525081019062000470919062000e1f565b6040518363ffffffff1660e01b81526004016200048f92919062000e51565b602060405180830381865afa158015620004ad573d6000803e3d6000fd5b505050506040513d601f19601f82011682018060405250810190620004d3919062000e1f565b90508073ffffffffffffffffffffffffffffffffffffffff168373ffffffffffffffffffffffffffffffffffffffff1603620005af57600860008573ffffffffffffffffffffffffffffffffffffffff1673ffffffffffffffffffffffffffffffffffffffff16815260200190815260200160002060009054906101000a900460ff16620005ae57600960009054906101000a900460ff16620005ad576040517f08c379a0000000000000000000000000000000000000000000000000000000008152600401620005a49062000edf565b60405180910390fd5b5b5b505b505050565b600073ffffffffffffffffffffffffffffffffffffffff168373ffffffffffffffffffffffffffffffffffffffff16036200060c578060026000828254620005ff919062000f30565b92505081905550620006e2565b60008060008573ffffffffffffffffffffffffffffffffffffffff1673ffffffffffffffffffffffffffffffffffffffff168152602001908152602001600020549050818110156200069b578381836040517fe450d38c000000000000000000000000000000000000000000000000000000008152600401620006929392919062000f7c565b60405180910390fd5b8181036000808673ffffffffffffffffffffffffffffffffffffffff1673ffffffffffffffffffffffffffffffffffffffff16815260200190815260200160002081905550505b600073ffffffffffffffffffffffffffffffffffffffff168273ffffffffffffffffffffffffffffffffffffffff16036200072d57806002600082825403925050819055506200077a565b806000808473ffffffffffffffffffffffffffffffffffffffff1673ffffffffffffffffffffffffffffffffffffffff168152602001908152602001600020600082825401925050819055505b8173ffffffffffffffffffffffffffffffffffffffff168373ffffffffffffffffffffffffffffffffffffffff167fddf252ad1be2c89b69c2b068fc378daa952ba7f163c4a11628f55a4df523b3ef83604051620007d9919062000fb9565b60405180910390a3505050565b6000604051905090565b600080fd5b600080fd5b600080fd5b600080fd5b6000601f19601f8301169050919050565b7f4e487b7100000000000000000000000000000000000000000000000000000000600052604160045260246000fd5b6200084f8262000804565b810181811067ffffffffffffffff8211171562000871576200087062000815565b5b80604052505050565b600062000886620007e6565b905062000894828262000844565b919050565b600067ffffffffffffffff821115620008b757620008b662000815565b5b620008c28262000804565b9050602081019050919050565b60005b83811015620008ef578082015181840152602081019050620008d2565b60008484015250505050565b6000620009126200090c8462000899565b6200087a565b905082815260208101848484011115620009315762000930620007ff565b5b6200093e848285620008cf565b509392505050565b600082601f8301126200095e576200095d620007fa565b5b815162000970848260208601620008fb565b91505092915050565b6000819050919050565b6200098e8162000979565b81146200099a57600080fd5b50565b600081519050620009ae8162000983565b92915050565b600073ffffffffffffffffffffffffffffffffffffffff82169050919050565b6000620009e182620009b4565b9050919050565b620009f381620009d4565b8114620009ff57600080fd5b50565b60008151905062000a1381620009e8565b92915050565b6000806000806080858703121562000a365762000a35620007f0565b5b600085015167ffffffffffffffff81111562000a575762000a56620007f5565b5b62000a658782880162000946565b945050602085015167ffffffffffffffff81111562000a895762000a88620007f5565b5b62000a978782880162000946565b935050604062000aaa878288016200099d565b925050606062000abd8782880162000a02565b91505092959194509250565b600081519050919050565b7f4e487b7100000000000000000000000000000000000000000000000000000000600052602260045260246000fd5b6000600282049050600182168062000b1c57607f821691505b60208210810362000b325762000b3162000ad4565b5b50919050565b60008190508160005260206000209050919050565b60006020601f8301049050919050565b600082821b905092915050565b60006008830262000b9c7fffffffffffffffffffffffffffffffffffffffffffffffffffffffffffffffff8262000b5d565b62000ba8868362000b5d565b95508019841693508086168417925050509392505050565b6000819050919050565b600062000beb62000be562000bdf8462000979565b62000bc0565b62000979565b9050919050565b6000819050919050565b62000c078362000bca565b62000c1f62000c168262000bf2565b84845462000b6a565b825550505050565b600090565b62000c3662000c27565b62000c4381848462000bfc565b505050565b5b8181101562000c6b5762000c5f60008262000c2c565b60018101905062000c49565b5050565b601f82111562000cba5762000c848162000b38565b62000c8f8462000b4d565b8101602085101562000c9f578190505b62000cb762000cae8562000b4d565b83018262000c48565b50505b505050565b600082821c905092915050565b600062000cdf6000198460080262000cbf565b1980831691505092915050565b600062000cfa838362000ccc565b9150826002028217905092915050565b62000d158262000ac9565b67ffffffffffffffff81111562000d315762000d3062000815565b5b62000d3d825462000b03565b62000d4a82828562000c6f565b600060209050601f83116001811462000d82576000841562000d6d578287015190505b62000d79858262000cec565b86555062000de9565b601f19841662000d928662000b38565b60005b8281101562000dbc5784890151825560018201915060208501945060208101905062000d95565b8683101562000ddc578489015162000dd8601f89168262000ccc565b8355505b6001600288020188555050505b505050505050565b62000dfc81620009d4565b82525050565b600060208201905062000e19600083018462000df1565b92915050565b60006020828403121562000e385762000e37620007f0565b5b600062000e488482850162000a02565b91505092915050565b600060408201905062000e68600083018562000df1565b62000e77602083018462000df1565b9392505050565b600082825260208201905092915050565b7f54726164696e672069732063757272656e746c792064697361626c6564000000600082015250565b600062000ec7601d8362000e7e565b915062000ed48262000e8f565b602082019050919050565b6000602082019050818103600083015262000efa8162000eb8565b9050919050565b7f4e487b7100000000000000000000000000000000000000000000000000000000600052601160045260246000fd5b600062000f3d8262000979565b915062000f4a8362000979565b925082820190508082111562000f655762000f6462000f01565b5b92915050565b62000f768162000979565b82525050565b600060608201905062000f93600083018662000df1565b62000fa2602083018562000f6b565b62000fb1604083018462000f6b565b949350505050565b600060208201905062000fd0600083018462000f6b565b92915050565b6117868062000fe66000396000f3fe608060405234801561001057600080fd5b506004361061010b5760003560e01c806370a08231116100a257806395d89b411161007157806395d89b41146102a8578063a9059cbb146102c6578063b7ecbaae146102f6578063dd62ed3e14610312578063f2fde38b146103425761010b565b806370a0823114610234578063715018a6146102645780638da5cb5b1461026e57806394a7ef151461028c5761010b565b8063214013ca116100de578063214013ca146101ac57806323b872dd146101c8578063313ce567146101f85780634ada218b146102165761010b565b806306c933d81461011057806306fdde0314610140578063095ea7b31461015e57806318160ddd1461018e575b600080fd5b61012a6004803603810190610125919061126a565b61035e565b60405161013791906112b2565b60405180910390f35b61014861037e565b604051610155919061135d565b60405180910390f35b610178600480360381019061017391906113b5565b610410565b60405161018591906112b2565b60405180910390f35b610196610433565b6040516101a39190611404565b60405180910390f35b6101c660048036038101906101c1919061126a565b61043d565b005b6101e260048036038101906101dd919061141f565b610528565b6040516101ef91906112b2565b60405180910390f35b610200610557565b60405161020d919061148e565b60405180910390f35b61021e610560565b60405161022b91906112b2565b60405180910390f35b61024e6004803603810190610249919061126a565b610573565b60405161025b9190611404565b60405180910390f35b61026c6105bb565b005b6102766105cf565b60405161028391906114b8565b60405180910390f35b6102a660048036038101906102a1919061126a565b6105f9565b005b6102b0610693565b6040516102bd919061135d565b60405180910390f35b6102e060048036038101906102db91906113b5565b610725565b6040516102ed91906112b2565b60405180910390f35b610310600480360381019061030b919061126a565b610748565b005b61032c600480360381019061032791906114d3565b6107e2565b6040516103399190611404565b60405180910390f35b61035c6004803603810190610357919061126a565b610869565b005b60086020528060005260406000206000915054906101000a900460ff1681565b60606003805461038d90611542565b80601f01602080910402602001604051908101604052809291908181526020018280546103b990611542565b80156104065780601f106103db57610100808354040283529160200191610406565b820191906000526020600020905b8154815290600101906020018083116103e957829003601f168201915b5050505050905090565b60008061041b6108ef565b90506104288185856108f7565b600191505092915050565b6000600254905090565b600860003373ffffffffffffffffffffffffffffffffffffffff1673ffffffffffffffffffffffffffffffffffffffff16815260200190815260200160002060009054906101000a900460ff166104c9576040517f08c379a00000000000000000000000000000000000000000000000000000000081526004016104c0906115bf565b60405180910390fd5b6001600960006101000a81548160ff0219169083151502179055506104ed81610869565b7f63e9bb35ae90a43113bc6f999f1c6395e88ee5f59560b46bd45815fe8560efae600160405161051d91906112b2565b60405180910390a150565b6000806105336108ef565b9050610540858285610909565b61054b85858561099d565b60019150509392505050565b60006012905090565b600960009054906101000a900460ff1681565b60008060008373ffffffffffffffffffffffffffffffffffffffff1673ffffffffffffffffffffffffffffffffffffffff168152602001908152602001600020549050919050565b6105c3610a91565b6105cd6000610b18565b565b6000600560009054906101000a900473ffffffffffffffffffffffffffffffffffffffff16905090565b610601610a91565b6001600860008373ffffffffffffffffffffffffffffffffffffffff1673ffffffffffffffffffffffffffffffffffffffff16815260200190815260200160002060006101000a81548160ff0219169083151502179055507fd1bba68c128cc3f427e5831b3c6f99f480b6efa6b9e80c757768f6124158cc3f8160405161068891906114b8565b60405180910390a150565b6060600480546106a290611542565b80601f01602080910402602001604051908101604052809291908181526020018280546106ce90611542565b801561071b5780601f106106f05761010080835404028352916020019161071b565b820191906000526020600020905b8154815290600101906020018083116106fe57829003601f168201915b5050505050905090565b6000806107306108ef565b905061073d81858561099d565b600191505092915050565b610750610a91565b6000600860008373ffffffffffffffffffffffffffffffffffffffff1673ffffffffffffffffffffffffffffffffffffffff16815260200190815260200160002060006101000a81548160ff0219169083151502179055507ff1abf01a1043b7c244d128e8595cf0c1d10743b022b03a02dffd8ca3bf729f5a816040516107d791906114b8565b60405180910390a150565b6000600160008473ffffffffffffffffffffffffffffffffffffffff1673ffffffffffffffffffffffffffffffffffffffff16815260200190815260200160002060008373ffffffffffffffffffffffffffffffffffffffff1673ffffffffffffffffffffffffffffffffffffffff16815260200190815260200160002054905092915050565b610871610a91565b600073ffffffffffffffffffffffffffffffffffffffff168173ffffffffffffffffffffffffffffffffffffffff16036108e35760006040517f1e4fbdf70000000000000000000000000000000000000000000000000000000081526004016108da91906114b8565b60405180910390fd5b6108ec81610b18565b50565b600033905090565b6109048383836001610bde565b505050565b600061091584846107e2565b90507fffffffffffffffffffffffffffffffffffffffffffffffffffffffffffffffff81146109975781811015610987578281836040517ffb8f41b200000000000000000000000000000000000000000000000000000000815260040161097e939291906115df565b60405180910390fd5b61099684848484036000610bde565b5b50505050565b600073ffffffffffffffffffffffffffffffffffffffff168373ffffffffffffffffffffffffffffffffffffffff1603610a0f5760006040517f96c6fd1e000000000000000000000000000000000000000000000000000000008152600401610a0691906114b8565b60405180910390fd5b600073ffffffffffffffffffffffffffffffffffffffff168273ffffffffffffffffffffffffffffffffffffffff1603610a815760006040517fec442f05000000000000000000000000000000000000000000000000000000008152600401610a7891906114b8565b60405180910390fd5b610a8c838383610db5565b505050565b610a996108ef565b73ffffffffffffffffffffffffffffffffffffffff16610ab76105cf565b73ffffffffffffffffffffffffffffffffffffffff1614610b1657610ada6108ef565b6040517f118cdaa7000000000000000000000000000000000000000000000000000000008152600401610b0d91906114b8565b60405180910390fd5b565b6000600560009054906101000a900473ffffffffffffffffffffffffffffffffffffffff16905081600560006101000a81548173ffffffffffffffffffffffffffffffffffffffff021916908373ffffffffffffffffffffffffffffffffffffffff1602179055508173ffffffffffffffffffffffffffffffffffffffff168173ffffffffffffffffffffffffffffffffffffffff167f8be0079c531659141344cd1fd0a4f28419497f9722a3daafe3b4186f6b6457e060405160405180910390a35050565b600073ffffffffffffffffffffffffffffffffffffffff168473ffffffffffffffffffffffffffffffffffffffff1603610c505760006040517fe602df05000000000000000000000000000000000000000000000000000000008152600401610c4791906114b8565b60405180910390fd5b600073ffffffffffffffffffffffffffffffffffffffff168373ffffffffffffffffffffffffffffffffffffffff1603610cc25760006040517f94280d62000000000000000000000000000000000000000000000000000000008152600401610cb991906114b8565b60405180910390fd5b81600160008673ffffffffffffffffffffffffffffffffffffffff1673ffffffffffffffffffffffffffffffffffffffff16815260200190815260200160002060008573ffffffffffffffffffffffffffffffffffffffff1673ffffffffffffffffffffffffffffffffffffffff168152602001908152602001600020819055508015610daf578273ffffffffffffffffffffffffffffffffffffffff168473ffffffffffffffffffffffffffffffffffffffff167f8c5be1e5ebec7d5bd14f71427d1e84f3dd0314c0f7b2291e5b200ac8c7c3b92584604051610da69190611404565b60405180910390a35b50505050565b610dc0838383610fe2565b600960009054906101000a900460ff16610fdd576000600760009054906101000a900473ffffffffffffffffffffffffffffffffffffffff1673ffffffffffffffffffffffffffffffffffffffff1663e6a4390530600660009054906101000a900473ffffffffffffffffffffffffffffffffffffffff1673ffffffffffffffffffffffffffffffffffffffff1663ad5c46486040518163ffffffff1660e01b8152600401602060405180830381865afa158015610e82573d6000803e3d6000fd5b505050506040513d601f19601f82011682018060405250810190610ea6919061162b565b6040518363ffffffff1660e01b8152600401610ec3929190611658565b602060405180830381865afa158015610ee0573d6000803e3d6000fd5b505050506040513d601f19601f82011682018060405250810190610f04919061162b565b90508073ffffffffffffffffffffffffffffffffffffffff168373ffffffffffffffffffffffffffffffffffffffff1603610fdb57600860008573ffffffffffffffffffffffffffffffffffffffff1673ffffffffffffffffffffffffffffffffffffffff16815260200190815260200160002060009054906101000a900460ff16610fda57600960009054906101000a900460ff16610fd9576040517f08c379a0000000000000000000000000000000000000000000000000000000008152600401610fd0906116cd565b60405180910390fd5b5b5b505b505050565b600073ffffffffffffffffffffffffffffffffffffffff168373ffffffffffffffffffffffffffffffffffffffff1603611034578060026000828254611028919061171c565b92505081905550611107565b60008060008573ffffffffffffffffffffffffffffffffffffffff1673ffffffffffffffffffffffffffffffffffffffff168152602001908152602001600020549050818110156110c0578381836040517fe450d38c0000000000000000000000000000000000000000000000000000000081526004016110b7939291906115df565b60405180910390fd5b8181036000808673ffffffffffffffffffffffffffffffffffffffff1673ffffffffffffffffffffffffffffffffffffffff16815260200190815260200160002081905550505b600073ffffffffffffffffffffffffffffffffffffffff168273ffffffffffffffffffffffffffffffffffffffff1603611150578060026000828254039250508190555061119d565b806000808473ffffffffffffffffffffffffffffffffffffffff1673ffffffffffffffffffffffffffffffffffffffff168152602001908152602001600020600082825401925050819055505b8173ffffffffffffffffffffffffffffffffffffffff168373ffffffffffffffffffffffffffffffffffffffff167fddf252ad1be2c89b69c2b068fc378daa952ba7f163c4a11628f55a4df523b3ef836040516111fa9190611404565b60405180910390a3505050565b600080fd5b600073ffffffffffffffffffffffffffffffffffffffff82169050919050565b60006112378261120c565b9050919050565b6112478161122c565b811461125257600080fd5b50565b6000813590506112648161123e565b92915050565b6000602082840312156112805761127f611207565b5b600061128e84828501611255565b91505092915050565b60008115159050919050565b6112ac81611297565b82525050565b60006020820190506112c760008301846112a3565b92915050565b600081519050919050565b600082825260208201905092915050565b60005b838110156113075780820151818401526020810190506112ec565b60008484015250505050565b6000601f19601f8301169050919050565b600061132f826112cd565b61133981856112d8565b93506113498185602086016112e9565b61135281611313565b840191505092915050565b600060208201905081810360008301526113778184611324565b905092915050565b6000819050919050565b6113928161137f565b811461139d57600080fd5b50565b6000813590506113af81611389565b92915050565b600080604083850312156113cc576113cb611207565b5b60006113da85828601611255565b92505060206113eb858286016113a0565b9150509250929050565b6113fe8161137f565b82525050565b600060208201905061141960008301846113f5565b92915050565b60008060006060848603121561143857611437611207565b5b600061144686828701611255565b935050602061145786828701611255565b9250506040611468868287016113a0565b9150509250925092565b600060ff82169050919050565b61148881611472565b82525050565b60006020820190506114a3600083018461147f565b92915050565b6114b28161122c565b82525050565b60006020820190506114cd60008301846114a9565b92915050565b600080604083850312156114ea576114e9611207565b5b60006114f885828601611255565b925050602061150985828601611255565b9150509250929050565b7f4e487b7100000000000000000000000000000000000000000000000000000000600052602260045260246000fd5b6000600282049050600182168061155a57607f821691505b60208210810361156d5761156c611513565b5b50919050565b7f596f7520617265206e6f742077686974656c6973746564000000000000000000600082015250565b60006115a96017836112d8565b91506115b482611573565b602082019050919050565b600060208201905081810360008301526115d88161159c565b9050919050565b60006060820190506115f460008301866114a9565b61160160208301856113f5565b61160e60408301846113f5565b949350505050565b6000815190506116258161123e565b92915050565b60006020828403121561164157611640611207565b5b600061164f84828501611616565b91505092915050565b600060408201905061166d60008301856114a9565b61167a60208301846114a9565b9392505050565b7f54726164696e672069732063757272656e746c792064697361626c6564000000600082015250565b60006116b7601d836112d8565b91506116c282611681565b602082019050919050565b600060208201905081810360008301526116e6816116aa565b9050919050565b7f4e487b7100000000000000000000000000000000000000000000000000000000600052601160045260246000fd5b60006117278261137f565b91506117328361137f565b925082820190508082111561174a576117496116ed565b5b9291505056fea2646970667358221220c6a99bd3b3b78bfabd94d170d98b51d256835df95f1f9f8dfeec24fc23ef0f2564736f6c63430008140033",
  "linkReferences": {},
  "deployedLinkReferences": {}
}